:100000000C9466000C9485000C9485000C9485007B
:100010000C9485000C9485000C9485000C9485004C
:100020000C9485000C9485000C9485000C9485003C
:100030000C9485000C9485000C9485000C9485002C
:100040000C9485000C9485000C9485000C9485001C
:100050000C9421140C9485000C9485000C9485005C
:100060000C9485000C9485000C9485000C948500FC
:100070000C9485000C9485000C9485000C948500EC
:100080000C9485000C9485000C9485000C94EE0B68
:100090000C94B3140C9485000C9485000C9485008A
:1000A0000C9485000C9485000C9485000C948500BC
:1000B0000C9485000C9485000C9485000C948500AC
:1000C0000C9485000C9485000C94850011241FBEAF
:1000D000CFEFD1E2DEBFCDBF14E0A0E0B2E0E2E1BD
:1000E000FEE200E00BBF02C007900D92AA36B107F6
:1000F000D9F714E0AAE6B4E001C01D92A23BB10713
:10010000E1F70E94A4100C9407170C940000A0E0E3
:10011000B0E0EDE8F0E00C940716DC012B01FA01E9
:100120009C91923008F439C1EB018881823008F447
:1001300033C1943069F4843009F02FC111969C9139
:1001400011978981981709F428C1A8E0B3E025C167
:10015000843009F421C18230A9F4923009F01DC124
:100160009A01AD0188E0EA010990AE01E901099226
:100170009E018150C1F7E201898111969C918923EA
:10018000818308C1923009F407C112962D903C90EA
:100190001397EB018A819B811496AD90BD90CD9011
:1001A000DC901797EC80FD800E811F819101281B48
:1001B000390BB90137FF04C066277727621B730B21
:1001C000603271050CF061C0121613066CF5370130
:1001D0004801062E04C096948794779467940A94F5
:1001E000D2F721E030E040E050E004C0220F331F9E
:1001F000441F551F6A95D2F721503040404050406F
:100200002E213F2140235123211531054105510560
:1002100021F021E030E040E050E079018A01E62859
:10022000F728082919293CC0232BD1F1260E371EA7
:1002300035014601062E04C09694879477946794FE
:100240000A94D2F721E030E040E050E004C0220FF1
:10025000331F441F551F6A95D2F72150304040404C
:1002600050402A213B214C215D21211531054105BA
:10027000510521F021E030E040E050E059016A01F1
:10028000A628B728C828D9280BC0821593052CF0BA
:100290001C01AA24BB24650103C0EE24FF248701AE
:1002A00011969C91D20111968C91981709F445C032
:1002B000992339F0A80197012A193B094C095D09D6
:1002C00006C0A60195012E193F09400B510B57FDA1
:1002D00008C0118233822282248335834683578368
:1002E0001DC081E081833382228288279927DC0127
:1002F000821B930BA40BB50B84839583A683B783D2
:100300000DC0220F331F441F551F2483358346839E
:1003100057838281938101979383828324813581DE
:1003200046815781DA01C9010197A109B1098F5F9F
:100330009F4FAF4FBF4328F30BC09183338222827C
:10034000EA0CFB1C0C1D1D1DE482F582068317833D
:1003500083E08083248135814681578157FF1AC00D
:10036000C901AA2797FDA095BA2F81709070A0703F
:10037000B0705695479537952795822B932BA42BD4
:10038000B52B84839583A683B7838281938101965D
:1003900093838283DF0101C0D201CD01CDB7DEB7E7
:1003A000E2E10C942316A0E2B0E0E9EDF1E00C9458
:1003B000131669837A838B839C832D833E834F83BB
:1003C0005887E9E0EE2EF12CEC0EFD1ECE010196D1
:1003D000B7010E943D068E010F5E1F4FCE010596AC
:1003E000B8010E943D068A8991E089278A8BC7015E
:1003F000B801AE01475E5F4F0E9487000E9468050A
:10040000A096E6E00C942F16A0E2B0E0EAE0F2E05D
:100410000C94131669837A838B839C832D833E838C
:100420004F835887F9E0EF2EF12CEC0EFD1ECE0124
:100430000196B7010E943D068E010F5E1F4FCE014F
:100440000596B8010E943D06C701B801AE01475E9E
:100450005F4F0E9487000E946805A096E6E00C941A
:100460002F16A0E2B0E0E7E3F2E00C9407166983F0
:100470007A838B839C832D833E834F835887CE0161
:100480000196BE01675F7F4F0E943D06CE01059633
:10049000BE016F5E7F4F0E943D069985923088F0C5
:1004A00089898230C8F0943019F4823051F404C044
:1004B000843029F4923081F488E093E0C6C0923011
:1004C00049F420E09A858A89981321E02A87CE0191
:1004D0000996BBC0823049F420E09A858A89981336
:1004E00021E02A8BCE014196B0C02D843E844F84FA
:1004F00058886D887E888F88988CEE24FF24870129
:10050000AA24BB24650140E050E060E070E0E0E038
:10051000F0E0C10181709070892BE9F0E60CF71CC6
:10052000081D191D9A01AB012A0D3B1D4C1D5D1DB7
:1005300080E090E0A0E0B0E0E614F70408051905BB
:1005400020F481E090E0A0E0B0E0BA01A901480FFA
:10055000591F6A1F7B1FAA0CBB1CCC1CDD1C97FEFD
:1005600008C081E090E0A0E0B0E0A82AB92ACA2A39
:10057000DB2A3196E032F10549F0660C771C881CC5
:10058000991C5694479437942794C3CFFA85EA89E7
:100590002B893C898B859C85280F391F2E5F3F4F07
:1005A00017C0CA0181709070892B61F0169507956C
:1005B000F794E79480E090E0A0E0B0E8E82AF92A18
:1005C0000A2B1B2B76956795579547952F5F3F4FC5
:1005D00077FDE7CF0CC0440F551F661F771F17FD2F
:1005E0004160EE0CFF1C001F111F215030404030B5
:1005F00090E0590790E0690790E4790760F32B8F4A
:100600003C8FDB01CA018F779070A070B07080348E
:100610009105A105B10561F447FD0AC0E114F1049B
:100620000105110529F0405C5F4F6F4F7F4F407807
:100630001A8EFE1711F081E08A8F4D8F5E8F6F8FBB
:1006400078A383E0898FCE0149960E946805A09621
:10065000E2E10C942316A8E1B0E0E1E3F3E00C94AE
:100660000F1669837A838B839C832D833E834F830C
:100670005887B9E0EB2EF12CEC0EFD1ECE01019651
:10068000B7010E943D068E010F5E1F4FCE010596F9
:10069000B8010E943D062985223008F47EC03989C0
:1006A000323010F4B8017CC08A859A8989278A87FC
:1006B000243011F0223031F4231709F06EC068E0C5
:1006C00073E06EC0343039F41D861E861F86188A8A
:1006D0001C861B8604C0323021F484E08987B70170
:1006E0005FC02B853C858B899C89281B390B3C87F7
:1006F0002B87ED84FE840F851889AD88BE88CF884E
:10070000D88CEA14FB040C051D0540F4EE0CFF1C0C
:10071000001F111F215030403C872B8720E030E024
:1007200040E050E080E090E0A0E0B0E460E070E005
:10073000EA14FB040C051D0540F0282B392B4A2B2D
:100740005B2BEA18FB080C091D09B695A795979530
:100750008795EE0CFF1C001F111F6F5F7F4F6F31DD
:10076000710531F7DA01C9018F779070A070B07010
:1007700080349105A105B10561F427FD0AC0E1149B
:10078000F1040105110529F0205C3F4F4F4F5F4FE9
:1007900020782D873E874F87588BBE01675F7F4F3C
:1007A000CB010E9468056896EAE00C942B16A8E13C
:1007B000B0E0EDEDF3E00C94131669837A838B833C
:1007C0009C832D833E834F83588789E0E82EF12C4C
:1007D000EC0EFD1ECE010196B7010E943D068E0172
:1007E0000F5E1F4FCE010596B8010E943D06898518
:1007F000823040F08989823028F0C701B8010E9418
:10080000B50601C081E06896E6E00C942F16A8E1D9
:10081000B0E0EDE0F4E00C94131669837A838B83E7
:100820009C832D833E834F83588789E0E82EF12CEB
:10083000EC0EFD1ECE010196B7010E943D068E0111
:100840000F5E1F4FCE010596B8010E943D068985B7
:10085000823040F08989823028F0C701B8010E94B7
:10086000B50601C081E06896E6E00C942F16A8E179
:10087000B0E0EDE3F4E00C94131669837A838B8384
:100880009C832D833E834F83588789E0E82EF12C8B
:10089000EC0EFD1ECE010196B7010E943D068E01B1
:1008A0000F5E1F4FCE010596B8010E943D06898557
:1008B000823040F08989823028F0C701B8010E9457
:1008C000B50601C08FEF6896E6E00C942F16A8E0FD
:1008D000B0E0EDE6F4E00C9410169B01AC0183E06F
:1008E0008983DA01C9018827B7FD83959927AA274B
:1008F000BB27B82E211531054105510519F482E0B9
:1009000089833AC08823A9F0203080E0380780E04E
:10091000480780E8580729F460E070E080E09FEC29
:1009200030C0EE24FF248701E21AF30A040B150BF2
:1009300002C079018A018EE1C82ED12CDC82CB82E3
:10094000ED82FE820F831887C801B7010E94190546
:1009500001971816190684F4082E04C0EE0CFF1C2B
:10096000001F111F0A94D2F7ED82FE820F831887B1
:10097000C81AD90ADC82CB82BA82CE0101960E94C3
:1009800068052896E9E00C942C16ACE0B0E0EBEC9E
:10099000F4E00C94171669837A838B839C83CE01D1
:1009A0000196BE016B5F7F4F0E943D068D818230B4
:1009B00061F1823050F1843021F48E81882351F12D
:1009C0002EC02F81388537FD20C06E812F31310533
:1009D0001CF06623F9F023C08EE190E0821B930B9C
:1009E00029853A854B855C8504C056954795379592
:1009F00027958A95D2F76623B1F0509540953095AA
:100A000021953F4F4F4F5F4F0EC020E030E040E058
:100A100050E009C02FEF3FEF4FEF5FE704C020E049
:100A200030E040E050E8B901CA012C96E2E00C94B5
:100A30003316EF92FF920F931F937B018C0180E09E
:100A4000E81680E0F80681E0080780E0180788F4DF
:100A50008FEFE816F1040105110531F028F088E068
:100A600090E0A0E0B0E017C080E090E0A0E0B0E04F
:100A700012C080E0E81680E0F80680E0080781E018
:100A8000180728F088E190E0A0E0B0E004C080E121
:100A900090E0A0E0B0E020E230E040E050E0281B31
:100AA000390B4A0B5B0B04C016950795F794E79436
:100AB0008A95D2F7F701E05FFC4F8081281B31094E
:100AC00041095109C9011F910F91FF90EF900895BD
:100AD000DF92EF92FF920F931F93FC01E480F58069
:100AE00006811781D1808081823048F480E090E0D7
:100AF000A0E1B0E0E82AF92A0A2B1B2BA5C084301C
:100B000009F49FC0823021F4EE24FF24870105C040
:100B1000E114F1040105110519F4E0E0F0E096C0DC
:100B2000628173819FEF623879070CF05BC022E825
:100B30003FEF261B370B2A3131052CF020E030E047
:100B400040E050E02AC0B801A701022E04C076950B
:100B50006795579547950A94D2F781E090E0A0E019
:100B6000B0E004C0880F991FAA1FBB1F2A95D2F7B7
:100B70000197A109B1098E219F21A023B1230097DC
:100B8000A105B10521F081E090E0A0E0B0E09A017C
:100B9000AB01282B392B4A2B5B2BDA01C9018F774C
:100BA0009070A070B07080349105A105B10539F442
:100BB00027FF09C0205C3F4F4F4F5F4F04C0215CAF
:100BC0003F4F4F4F5F4FE0E0F0E02030A0E03A07AA
:100BD000A0E04A07A0E45A0710F0E1E0F0E0790154
:100BE0008A0127C06038710564F5FB01E158FF4FA9
:100BF000D801C7018F779070A070B07080349105D4
:100C0000A105B10539F4E7FE0DC080E490E0A0E055
:100C1000B0E004C08FE390E0A0E0B0E0E80EF91E81
:100C20000A1F1B1F17FF05C016950795F794E79439
:100C3000319687E016950795F794E7948A95D1F752
:100C400005C0EE24FF248701EFEFF0E06E2F6795DB
:100C500066276795902F9F77D794DD24D7948E2FA2
:100C60008695492F462B582F5D29B701CA011F9140
:100C70000F91FF90EF90DF900895FC01DB01408120
:100C800051812281622F6F7770E0221F2227221F5D
:100C90009381892F880F822B282F30E0991F992765
:100CA000991F11969C93119721153105A9F54115AE
:100CB00051056105710511F482E037C082E89FEFAC
:100CC00013969C938E9312979A01AB0167E0220FC3
:100CD000331F441F551F6A95D1F783E08C930DC0D5
:100CE000220F331F441F551F12968D919C9113970D
:100CF000019713969C938E931297203080E03807CB
:100D000080E0480780E4580758F314962D933D93EC
:100D10004D935C93179708952F3F310579F4411552
:100D200051056105710519F484E08C93089564FF01
:100D300003C081E08C9312C01C9210C02F5730402A
:100D400013963C932E93129783E08C9387E0440F85
:100D5000551F661F771F8A95D1F7706414964D93BF
:100D60005D936D937C93179708951F93DC01FB01AE
:100D70009C91923008F447C08081823008F443C0CF
:100D8000943051F411961C91843099F58181682F2B
:100D900070E0611B71093FC0843021F0923031F462
:100DA0008230B9F18181882389F12DC011961C917F
:100DB00011978230F1F081811817D9F412962D9194
:100DC0003C911397828193818217930794F028179F
:100DD0003907BCF014968D919D910D90BC91A02D7A
:100DE0002481358146815781281739074A075B07D7
:100DF00018F4112341F00AC082179307A407B5071E
:100E000040F4112319F061E070E005C06FEF7FEF4F
:100E100002C060E070E0CB011F910895AC018B32FD
:100E2000910519F42EE330E024C08F32910519F4B6
:100E30002FE330E01EC08D33910519F420E430E03B
:100E400018C0C0970A9720F49A012C5F3F4F11C039
:100E50009A01215430402A31310558F0CA01815697
:100E600090404A9718F020E030E003C09A012754E0
:100E70003040C9010895CF93DF93EC01E0E0F0E04A
:100E800020E030E00AC0CF0163E070E00E94E0158E
:100E9000892B11F42F5F3F4F3196EC17FD0798F324
:100EA000220F331F220F331FC901DF91CF91089505
:100EB0009C01220F331F280F391F36952795369531
:100EC0002795C90108958F929F92AF92BF92CF92BA
:100ED000DF92EF92FF920F931F93DF93CF9300D097
:100EE00000D000D0CDB7DEB75B016A017C0160E0C5
:100EF00070E040E050E000E010E04E010894811CFA
:100F0000911C60C0FA01EE0FFF1FE80DF91DD7011B
:100F10008D919C91918380834F5F5F4F433051054A
:100F200009F04AC089819A81A601400F511FFC0136
:100F3000F070F695E795F695E795E05FFB4F208119
:100F4000FA0120832B813C81F901E07FF070B4E04D
:100F5000F695E795BA95E1F783709070A4E0880F55
:100F6000991FAA95E1F7E05FFB4FE80FF91F808119
:100F7000DA0111968C93AD81BE81FD01E07CF070A9
:100F800096E0F695E7959A95E1F72F703070220F6D
:100F9000331F220F331FE05FFB4FE20FF31F8081EF
:100FA000FA018283AF73B070A05FBB4F8C918383D3
:100FB0000C5F1F4F40E050E06F5F7F4F82E090E09A
:100FC000E80EF91E6A157B0508F49CCF4115510502
:100FD00009F446C04130510511F41C821B828981FD
:100FE0009A81B601600F711FFC01F070F695E795CC
:100FF000F695E795E05FFB4F2081DB012C93AB81F9
:10100000BC81FD01E07FF07034E0F695E7953A95FC
:10101000E1F78370907024E0880F991F2A95E1F71B
:10102000E05FFB4FE80FF91F8081FB0181834230B5
:10103000510559F4AF70B070AA0FBB1FAA0FBB1FA8
:10104000A05FBB4F8C91828304C08DE3DB011296BD
:101050008C93F601E00FF11F8DE383830C5F1F4F2C
:10106000C00ED11EF6011082C80126960FB6F89464
:10107000DEBF0FBECDBFCF91DF911F910F91FF90CB
:10108000EF90DF90CF90BF90AF909F908F9008959A
:101090004F925F926F927F928F929F92AF92BF9288
:1010A000CF92DF92EF92FF920F931F93DF93CF9334
:1010B000CDB7DEB728970FB6F894DEBF0FBECDBF11
:1010C0003C014B015A01CC24DD2400E010E0EE2469
:1010D000FF242E010894411C511C6AC0F301EC0D41
:1010E000FD1D808190E00E940E07F801EE0FFF1FAA
:1010F000E40DF51D918380830F5F1F4F04301105B0
:1011000009F053C04B815C81F701EE0FFF1FEA0D20
:10111000FB1D9A012073307014E0369527951A95BF
:10112000E1F789819A819070880F991F880F991F24
:10113000280F391F318320832D813E81F70131969D
:101140002034310579F1EE0FFF1FEA0DFB1DC901B7
:101150008C739070969587959695879564E0440F6B
:10116000551F6A95E1F75070840F951F9183808316
:101170008F819885F70132968034910599F0EE0FB2
:10118000FF1FEA0DFB1D46E0220F331F4A95E1F7D2
:101190003070280F391F3183208383E090E0E80E00
:1011A000F91E01C07F0100E010E00894C11CD11CB1
:1011B000C814D90408F492CFC70128960FB6F89442
:1011C000DEBF0FBECDBFCF91DF911F910F91FF907A
:1011D000EF90DF90CF90BF90AF909F908F907F90D7
:1011E0006F905F904F900895FC0120E030E040E068
:1011F00050E0B22FAA279927882760E070E0880F77
:10120000991FAA1FBB1F6F5F7F4F68307105B9F729
:1012100081939193A193B1932F5F3F4F4F4F5F4FB6
:10122000203081E0380780E0480780E0580709F760
:1012300008958F929F92AF92BF92CF92DF92EF92DA
:10124000FF920F931F93CF93DF934C01E901570156
:101250006801CA01DB019C01AD01EE24FF24870176
:1012600021C0FE01EE0DFF1DE081852F9927AA27E1
:10127000BB27E827F0E0EE0FFF1FEE0FFF1FE80D82
:10128000F91D80819181A281B381542F432F322F88
:101290002227282739274A275B270894E11CF11CBD
:1012A000011D111DEA14FB040C051D05D4F2B90142
:1012B000CA01DF91CF911F910F91FF90EF90DF90C6
:1012C000CF90BF90AF909F908F9008954F925F9274
:1012D0006F927F928F929F92AF92BF92CF92DF9246
:1012E000EF92FF920F931F93CF93DF932C01E901AD
:1012F00037014801CA01DB017C018D01AA24BB240E
:10130000650127C0502F4F2D3E2D2227FE01EA0DEB
:10131000FB1D808190E0A0E0B0E0282B392B4A2B08
:101320005B2B812F9927AA27BB27880F991F880F2E
:10133000991F840D951DFC01E080F18002811381CD
:10134000E226F326042715270894A11CB11CC11C12
:10135000D11CA614B704C804D904A4F2B701C8016B
:10136000DF91CF911F910F91FF90EF90DF90CF9081
:10137000BF90AF909F908F907F906F905F904F90B5
:101380000895EF92FF920F931F937B018C01C90187
:10139000DA019C01AD0160E070E0C90181709070DC
:1013A000892B51F02E253F254027512756954795EB
:1013B00037952795506804C05695479537952795DA
:1013C0006F5F7F4F6032710541F7B901CA011F910C
:1013D0000F91FF90EF90089580FF02C05F9A01C0C7
:1013E0005F9881FF02C05E9A01C05E9882FF02C0D2
:1013F0005D9A01C05D9883FF02C05C9A08955C9875
:1014000008951F93182FA09A82958F700E94EC095F
:10141000A098A09A812F0E94EC09A09885E88A954F
:10142000F1F71F910895A1980E94010A0895A19AC9
:101430000E94010A0895CF93DF93EC0103C0219627
:101440000E94170A88818823D1F7DF91CF910895F0
:10145000613039F0613040F0623029F0633061F47E
:1014600007C0805C01C08C5E80680E94130A0895EA
:101470008C5A80680E94130A089581E00E94130A22
:1014800080EA9FE00197F1F7089582E00E94130A35
:1014900080EA9FE00197F1F708951F93CF93DF93C0
:1014A000579A569A559A549A989A999A80E395E73A
:1014B0000197F1F7A198A09810E0C0E1D7E2A09AB7
:1014C00083E00E94EC09A098CE010197F1F71F5F1D
:1014D0001330A9F7A09A82E00E94EC09A09880ED51
:1014E00097E00197F1F788E20E94130A88E00E94D2
:1014F000130A81E00E94130A80EA9FE00197F1F746
:1015000086E00E94130A8CE00E94130ADF91CF91BB
:101510001F9108959093C5008093C40088E1809343
:10152000C10008959093CD008093CC0088E980930A
:10153000C9000895982F8091C80085FFFCCF909333
:10154000CE0008958091C80087FFFCCF8091CE0027
:101550000895FC0107C08091C80085FFFCCF31963B
:101560009093CE0090819923B1F70895E1ECF0E0DB
:101570008081877F80830895982F8091C00085FFA8
:10158000FCCF9093C6000895FC0107C08091C00075
:1015900085FFFCCF31969093C60090819923B1F7D7
:1015A00008958091C00087FFFCCF8091C600089508
:1015B0008F929F92AF92BF92CF92DF92EF92FF9263
:1015C0000F931F93DF93CF9300D000D0CDB7DEB73A
:1015D0007C010E943D0A80E060E00E94280A80E0D1
:1015E00092E00E941B0A80E197E228EC30E0F901CA
:1015F0003197F1F70197D9F790E3892E95E7992E66
:1016000000E117E25E010894A11CB11C80EAC82E1B
:101610008FE0D82E81E0E816F10491F5729A739A62
:10162000C4010197F1F785E092E00E94C40AC80165
:101630000197F1F772987398C8010197F1F72F9A03
:10164000F5018091C00087FFFCCF8091C6008B34EC
:1016500011F08193F6CF8A81813309F082C08B81AA
:101660008E3409F07EC0C6010197F1F7429AC60197
:101670000197F1F74298C8010197F1F72F986FC0D1
:1016800082E0E816F10491F5729A739AC401019709
:10169000F1F789E092E00E94C40AC8010197F1F7CE
:1016A00072987398C8010197F1F72E9AF50180910D
:1016B000C00087FFFCCF8091C6008B3411F081936E
:1016C000F6CF8A81823309F049C08B818E3449F488
:1016D000C6010197F1F7159AC6010197F1F7159820
:1016E00035C0803509F03AC0109A3BC083E0E81657
:1016F000F10409F034C0729A739AC4010197F1F7AA
:101700008DE092E00E94C40AC8010197F1F7729837
:101710007398C8010197F1F72E9AF5018091C000E6
:1017200087FFFCCF8091C6008B3411F08193F6CFF8
:101730008A81833399F48B818E3461F4C6010197D9
:10174000F1F78D9AC6010197F1F78D98C8010197BD
:10175000F1F704C0803511F4889A03C02E982F98B1
:1017600059CF419A0E943D0A80E060E00E94280A19
:1017700081E192E00E941B0A80E29EE428EC30E0C6
:10178000F9013197F1F70197D9F70E943D0A789452
:101790002F980F900F900F900F90CF91DF911F9186
:1017A0000F91FF90EF90DF90CF90BF90AF909F9000
:1017B0008F900895109295001092940082E080938B
:1017C000900081E08093910088BB809371008AEF44
:1017D00090E090939F0480939E0408951F920F922F
:1017E0000FB60F9211240F900FBE0F901F901895F7
:1017F000109285001092840082E08093800081E046
:101800008093810086BB80936F0084EF91E090937A
:101810009704809396040895109281000895AF92E2
:10182000BF92CF92DF92EF92FF920F931F93DF93BD
:10183000CF9300D00F92CDB7DEB77C016B0100973C
:1018400031F480E3FB01808301E010E02FC000E071
:1018500010E05E010894A11CB11CC7016AE070E0B1
:101860000E94E0158A30910514F0895A01C0805D0C
:10187000F501E00FF11F80830F5F1F4FC7016AE082
:1018800070E00E94E0157B016115710531F7015090
:101890001040F501E00FF11F0F5F1F4FD60103C08D
:1018A00080818D933197EC17FD07D1F70C0D1D1D2D
:1018B000F80110820F900F900F90CF91DF911F9140
:1018C0000F91FF90EF90DF90CF90BF90AF90089571
:1018D000FC0120E030E010C0C90163E0880F991FCF
:1018E0006A95E1F7220F331F820F931F242F30E0F8
:1018F00020533040280F391F4191442369F7C90113
:101900000895F999FECF1FBA92BD81BD60BDFA9AC4
:10191000F99A0895F999FECF92BD81BDF89A80B5E4
:1019200008951F936B3F710524F0162F1A5F6AEF1D
:1019300001C010E08130910539F484E690E00E9406
:10194000810C85E690E012C08230910539F488EC74
:1019500090E00E94810C89EC90E008C0039749F464
:101960008CE291E00E94810C8DE291E0612F0E9457
:10197000810C1F91089581309105C9F4F999FECF2A
:1019800084E690E092BD81BDF89A30B5F999FECF1A
:1019900085E690E092BD81BDF89A20B5832F90E056
:1019A000820F911D90937D0480937C040895823072
:1019B0009105C9F4F999FECF88EC90E092BD81BD04
:1019C000F89A30B5F999FECF89EC90E092BD81BDCF
:1019D000F89A20B5832F90E0820F911D90937F0499
:1019E00080937E0408950397C1F4F999FECF8CE2A9
:1019F00091E092BD81BDF89A30B5F999FECF8DE2A4
:101A000091E092BD81BDF89A20B5832F90E0820FBE
:101A1000911D909381048093800408956F927F922A
:101A20008F929F92AF92BF92CF92DF92EF92FF92EE
:101A30000F931F93DF93CF9300D000D000D0CDB78A
:101A4000DEB700E010E0EE24FF24A4E0CA2EDD247F
:101A50004E010894811C911CF4E0AF2EB12CAC0E09
:101A6000BD1EE8EC6E2E712C02C005E010E00230C5
:101A7000110589F10330110544F40115110569F0D0
:101A80000130110509F089C017C00530110591F129
:101A90000630110509F081C058C080E060E00E9466
:101AA000280A89E192E00E941B0A80E061E00E941E
:101AB000280A88E292E06FC080E060E00E94280A75
:101AC0008EE292E00E941B0A80E061E00E94280AF8
:101AD00085E392E060C080E060E00E94280A88E22E
:101AE00092E00E941B0A80E061E00E94280A8FE3D6
:101AF00092E051C080E060E00E94280A88E292E013
:101B00000E941B0A81E061E00E94280A8C2D99271F
:101B100087FD9095B4010E940F0CC4010E941B0A1E
:101B200083E061E00E94280A8AE492E00E941B0A96
:101B300084E061E00E94280A8D2D992787FD909509
:101B4000B5010E940F0CC50126C080E060E00E9434
:101B5000280A85E392E00E941B0A80E061E00E946F
:101B6000280AE114F10419F48CE492E014C081E035
:101B7000E816F10419F480E592E00DC082E0E81661
:101B8000F10419F484E592E006C083E0E816F1045C
:101B900021F488E592E00E941B0A8EEE92E0F301A8
:101BA0003197F1F70197D9F7649B1DC00E943D0A58
:101BB000659936C0043011054CF083E0E816F10455
:101BC0000CF071C00894E11CF11C6DC002301105CD
:101BD0003CF50F5F1F4F24C0D3948AE0D81601F55F
:101BE000C394DD241DC00E943D0A659B19C00430CA
:101BF000110534F0E114F10419F00894E108F1083A
:101C0000C80101978330910508F48C010530110556
:101C100039F4DA948FEFD81619F4CA9479E0D72EF4
:101C2000669925CF01151105B9F00130110509F4A8
:101C30001CCF0230110519F406E010E018CF053072
:101C4000110519F401E010E012CF0630110509F07A
:101C50000ECF02E010E00BCF81E0E816F10491F026
:101C600082E0E816F1041CF4EF2851F012C082E083
:101C7000E816F10449F083E0E816F10451F407C0D6
:101C8000459A03C0459804C04598469802C0459AB5
:101C9000469A88E893E128EC30E0F9013197F1F7B2
:101CA0000197D9F705C00530110509F495CFB8CFD4
:101CB00026960FB6F894DEBF0FBECDBFCF91DF9151
:101CC0001F910F91FF90EF90DF90CF90BF90AF905A
:101CD0009F908F907F906F900895CF92DF92EF92B8
:101CE000FF920F931F93DF93CF93CDB7DEB76F971C
:101CF0000FB6F894DEBF0FBECDBF6C01729A739A17
:101D000080E197E20197F1F781E0C816D10419F458
:101D10008DE592E00DC0A2E0CA16D10419F480E668
:101D200092E006C0B3E0CB16D10421F483E692E042
:101D30000E94C40A80EA9FE00197F1F772987398B5
:101D40002E9A1A861B861C861D86FE013E9686E00C
:101D5000DF011D928A95E9F7EE24FF249E01265F9C
:101D60003F4F8091C00087FFFCCF8091C6008B342D
:101D700041F0F901EE0DFF1D80830894E11CF11C78
:101D8000F0CF9C852D853E854F858B858D839E83E9
:101D90002F83388749878E010B5F1F4FF801EE0DA7
:101DA000FF1D1082C7010E945807C801B701AE018C
:101DB0004C5E5F4F0E9448089E89288D8C898983DC
:101DC0009A832B831C82B1E0CB16D10449F4CE0157
:101DD00001960E94680C909383048093820419C03A
:101DE00082E0C816D10449F4CE0101960E94680C25
:101DF00090938504809384040CC0A3E0CA16D10498
:101E000041F4CE0101960E94680C90938704809360
:101E10008604209182043091830480917C04909107
:101E20007D042817390719F5209184043091850421
:101E300080917E0490917F0428173907C1F4209186
:101E40008604309187048091800490918104281742
:101E5000390769F480918C04882349F486E692E07E
:101E60000E94A90A10928B0481E080938C042E9822
:101E70006F960FB6F894DEBF0FBECDBFCF91DF9146
:101E80001F910F91FF90EF90DF90CF900895EF9208
:101E9000FF920F931F93DF93CF93CDB7DEB72A97AF
:101EA0000FB6F894DEBF0FBECDBF00E0B8ECEB2E4E
:101EB000F12C002309F039C180E060E00E94280A7B
:101EC0008BE692E00E941B0A80E061E00E94280AF3
:101ED00086E792E00E941B0A649B04C0659907C0D4
:101EE00001E005C0659B03C0013009F400E066997C
:101EF00005C028E833E148EC50E00AC08EEE92E0DD
:101F0000F7013197F1F70197D9F70E943D0AD1CF38
:101F1000CA010197F1F721503040D1F7002309F0B1
:101F20008AC00E943D0A80E060E00E94280A83E89F
:101F300092E00E941B0A85E061E00E94280A8DE879
:101F400092E00E941B0A6699FECF81E090E00E9419
:101F50006D0E88EE93E028EC30E0F9013197F1F74F
:101F60000197D9F7609182047091830481E090E039
:101F70000E94910C82E090E00E946D0E88EE93E04A
:101F800028EC30E0F9013197F1F70197D9F760912A
:101F900084047091850482E090E00E94910C83E0BB
:101FA00090E00E946D0E88EE93E028EC30E0F9019D
:101FB0003197F1F70197D9F7609186047091870402
:101FC00083E090E00E94910C8091860490918704B8
:101FD0008E010F5F1F4FB8014AE050E00E945C166F
:101FE0000E943D0A80E060E00E94280AC8010E9429
:101FF0001B0A88EA91E628EC30E0F9013197F1F705
:102000000197D9F7729A739A88EE93E028EC30E042
:10201000F9013197F1F70197D9F788E992E00E9429
:10202000C40A80EE9EE228EC30E0F9013197F1F726
:102030000197D9F761C081E090E00E94BB0C82E07B
:1020400090E00E94BB0C83E090E00E94BB0C80E11A
:1020500097E228EC30E0F9013197F1F70197D9F7D1
:1020600084EF91E090939704809396040E943D0A38
:1020700080E060E00E94280A8DE992E00E941B0A3D
:1020800080E061E00E94280A8CEA92E00E941B0A2C
:102090000E94F80B80916604909167048F5F9F4FB8
:1020A000C9F30E943D0A80E060E00E94280A84EBA8
:1020B00092E00E941B0A88E99AE328EC30E0F901DB
:1020C0003197F1F70197D9F7729A739A88EE93E0F6
:1020D00028EC30E0F9013197F1F70197D9F788E959
:1020E00092E00E94C40A80EE9EE228EC30E0F90102
:1020F0003197F1F70197D9F710927D0410927C0483
:1021000010927F0410927E04109281041092800439
:102110002A960FB6F894DEBF0FBECDBFCF91DF91E8
:102120001F910F91FF90EF90089580E060E00E9472
:10213000280A83E892E00E941B0A80E061E00E9486
:10214000280A87EB92E0C6CE4F925F926F927F9201
:102150008F929F92AF92BF92CF92DF92EF92FF92B7
:102160000F931F93DF93CF9300D00F92CDB7DEB7BD
:1021700080E885BF85BF809174008F77809374005D
:102180006E98769A6D98759A6C98749A81B18767F3
:1021900081B9109815981698129882B1826182B907
:1021A00087B1866E87B947984598429888B182640E
:1021B00088B980B3876780BB88988D988E988A98F5
:1021C00081B3826181BB1092C5009CE09093C400F2
:1021D00088E18093C1001092CD009093CC0088E9F3
:1021E0008093C9000E944D0A8DB18C608DB97298A0
:1021F000739884B1806C84B985B1806C85B980E1B5
:1022000097E228EC30E0F9013197F1F70197D9F71F
:102210002E982F9888E99AE328EC30E0F90131975D
:10222000F1F70197D9F781E090E00E94D80A84EC99
:1022300099E028EC30E0F9013197F1F70197D9F7EF
:1022400082E090E00E94D80A84EC99E028EC30E02B
:10225000F9013197F1F70197D9F783E090E00E94F7
:10226000D80A84EC99E028EC30E0F9013197F1F7D5
:102270000197D9F70E94470F0E940E0D1092670434
:102280001092660410929C0410929B041092830496
:1022900010928204109285041092840478944798D6
:1022A000109888982E982F9800E010E0FF24F3945F
:1022B0003E010894611C711C48ECC42ED12C30E204
:1022C000E32E21E0822E912C94EFA92E91E0B92EDD
:1022D00080E2482E8EE4582E809166049091670427
:1022E000892B09F097C080918B04813061F4909222
:1022F000670480926604B0929704A09296040E94AC
:10230000F80B0E943D0A669946C08CED95E0F601F7
:102310003197F1F70197D9F7E0929D0481E0F81623
:1023200029F410937D0400937C040FC082E0F8161A
:1023300029F410937F0400937E0407C083E0F8160D
:1023400021F41093810400938004F39483E08F15AB
:1023500018F000E010E01FC081E061E00E94280A50
:1023600085EC92E00E941B0A88E99AE3F601319716
:10237000F1F70197D9F70E943D0A90926704809285
:102380006604B0929704A09296040E94F80B00E0B5
:1023900010E0FF24F394649B09C065990EC081E0AE
:1023A000043F180754F40B5F1F4F07C0659B05C01F
:1023B0001016110614F405501040C801B3014AE08C
:1023C00050E00E945C160E943D0A80E060E00E949E
:1023D000280A81E0F81619F48BEC92E00BC082E039
:1023E000F81619F484ED92E005C083E0F81621F4A4
:1023F0008DED92E00E941B0A80E069E00E94280AAD
:10240000C3010E941B0A8CEB92E0F6013197F1F7B1
:102410000197D9F78091660490916704019709F0BC
:102420005BCF80E060E00E94280A8CEA92E00E9484
:102430001B0A85E061E00E94280A86EE92E00E9475
:102440001B0A669B09C080919D04823429F080910B
:102450008B04882309F040CF109267041092660421
:1024600010928B0410928100C2010197F1F70E9433
:102470003D0A80E060E00E94280A82EF92E00E941C
:102480001B0A80E395E7F6013197F1F70197D9F739
:102490000E943D0A21CF4F925F926F927F928F925E
:1024A0009F92AF92BF92CF92DF92EF92FF920F93E3
:1024B0001F93CF93DF93EC018130910549F4809015
:1024C0007C0490907D0480918204909183041AC0D2
:1024D0008230910549F480907E0490907F04809131
:1024E0008404909185040EC08330910519F08824EE
:1024F00099240AC080908004909081048091860481
:1025000090918704881A990AE0905D04F0905E0427
:1025100000915F0410916004B401882777FD8095D5
:10252000982F0E9467042B013C01C130D10549F46A
:1025300020916C0430916D0440916E0450916F04B1
:1025400022C0C230D10549F4209170043091710449
:10255000409172045091730416C0C330D10559F0F4
:102560000F2EF0E0AF2EF0E0BF2EF0E0CF2EF0E027
:10257000DF2EF02D18C02091740430917504409125
:10258000760450917704C301B2010E94D3012091D7
:1025900051043091520440915304509154040E94CC
:1025A0002B035B016C01C801B701A30192010E94DA
:1025B00031027B018C01C601B5012091610430918B
:1025C000620440916304509164040E9431029B01B3
:1025D000AC01C801B7010E9404020E9485165B018C
:1025E0006C01C40197FE04C08827992788199909AE
:1025F0008B3F910504F12AEF821691042CF0C13033
:10260000D10539F4419839C0C130D10539F4419A26
:1026100034C0C230D10539F416982FC0C230D1056C
:1026200031F4169A2AC0C330D10531F126C0C33027
:10263000D10501F122C010E0C601B50120E030E073
:1026400040E050E00E943704882334F011E0C130AC
:10265000D10511F4419A03C04198112329F0C230E9
:10266000D10511F4169A03C01698112329F0C3302E
:10267000D10511F48E9A01C08E98C601B50120E0F3
:1026800030E040E050E00E940704882309F1C130A7
:10269000D10541F44798429A80ED97E00197F1F710
:1026A000429819C0C230D10541F41098159A80EDB6
:1026B00097E00197F1F715981AC0C330D10501F5DD
:1026C00088988D9A80ED97E00197F1F78D981BC05F
:1026D000C130D10549F440926C0450926D0460926F
:1026E0006E0470926F041AC0C230D10549F4409252
:1026F000700450927104609272047092730446C028
:10270000C330D10549F4409274045092750460922C
:102710007604709277043AC02197C1F51092850033
:102720001092840060E070E080E89FE3A6019501CC
:102730000E942B0320E030E44CE156E40E94310279
:102740000E94C504CB0177FF03C0909581959F4FF0
:1027500090939704809396048091960490919704A7
:10276000883C910534F488EC90E090939704809332
:10277000960480919604909197048F5E924034F075
:102780008EEE92E090939704809396048091660475
:10279000909167048F5F9F4F09F042C060916C0475
:1027A00070916D0480916E0490916F0420E030E090
:1027B00040E050E00E94D703882321F481E0809319
:1027C0008D0402C010928D046091700470917104A8
:1027D000809172049091730420E030E040E050E07A
:1027E0000E94D703882321F481E080938E0402C0E5
:1027F00010928E0460917404709175048091760437
:102800009091770420E030E040E050E00E94D70350
:10281000882321F481E080938F0402C010928F04FA
:10282000DF91CF911F910F91FF90EF90DF90CF90AC
:10283000BF90AF909F908F907F906F905F904F90E0
:1028400008951F920F920FB60F920BB60F9211249C
:102850002F933F934F935F936F937F938F939F93A8
:10286000AF93BF93EF93FF93809196049091970459
:102870000197909397048093960480919604909189
:1028800097048639910551F481E090E00E946D0E25
:1028900085E990E090939704809396048091960444
:1028A000909197048436910551F482E090E00E9463
:1028B0006D0E83E690E09093970480939604809148
:1028C000960490919704C29751F483E090E00E949F
:1028D0006D0E81E390E0909397048093960480912D
:1028E0009604909197041816190654F18091650486
:1028F00090E00E944B12809165048F5F8093650485
:1029000080916504843018F081E0809365048091A3
:102910006604909167048F5F9F4F91F480918D04BE
:10292000813071F480918E04813051F480918F0454
:10293000813031F410926704109266041092810085
:10294000FF91EF91BF91AF919F918F917F916F9187
:102950005F914F913F912F910F900BBE0F900FBE43
:102960000F901F9018951F920F920FB60F920BB6F3
:102970000F9211242F933F934F935F936F937F9305
:102980008F939F93AF93BF93EF93FF938091CE006C
:1029900080939D048091CE00803519F481E080936E
:1029A000890480918904813009F0F7C0E091900496
:1029B000F0E080919D04E056FB4F8083809190046D
:1029C0008F5F8093900480918A04882389F080919E
:1029D0009D048B3469F0E0918804F0E080919D04BF
:1029E000E455FB4F8083809188048F5F8093880437
:1029F00080919D04833519F481E080938A0480914D
:102A00009D04873419F482E080938A0480919D04A8
:102A1000853519F483E080938A0480919D04813484
:102A200019F484E080938A0480919D048B3409F02A
:102A3000B4C080918A04813069F50E943D0A80E02B
:102A400060E00E94280A87EF92E00E941B0A88EB50
:102A500098E828EC30E0F9013197F1F70197D9F7C0
:102A60000E943D0A8091AD04803311F4459A469846
:102A70008091AD04813311F44598469A8091AD045C
:102A8000823311F4459846988091AD04833311F454
:102A9000459A469A80918A04823009F067C0109264
:102AA0008C04E0918804F0E0E455FB4F10820E9412
:102AB0003D0A80E060E00E94280A8091A0048133F2
:102AC00089F48BEC92E00E941B0A8CEA94E00E944D
:102AD0003E1690937D0480937C04809191048F5FD7
:102AE000809391048091A004823389F484ED92E074
:102AF0000E941B0A8CEA94E00E943E1690937F0489
:102B000080937E04809191048F5F809391048091E3
:102B1000A004833389F48DED92E00E941B0A8CEAB5
:102B200094E00E943E1690938104809380048091EB
:102B300091048F5F8093910480E065E00E94280AF1
:102B40008CEA94E00E941B0A88E893E128EC30E0CC
:102B5000F9013197F1F70197D9F78091910483300A
:102B600028F081E080938B041092910480918A0474
:102B7000833019F481E080938B0480918A0484303F
:102B800021F484E093E00E94A90A10928A04109232
:102B900088041092890410929004FF91EF91BF91E4
:102BA000AF919F918F917F916F915F914F913F91E5
:102BB0002F910F900BBE0F900FBE0F901F90189586
:102BC00097FB092E07260AD077FD04D00CD006D03B
:102BD00000201AF4709561957F4F0895F6F790954F
:102BE00081959F4F0895AA1BBB1B51E107C0AA1FE7
:102BF000BB1FA617B70710F0A61BB70B881F991F9E
:102C00005A95A9F780959095BC01CD0108952F9212
:102C10003F924F925F926F927F928F929F92AF926C
:102C2000BF92CF92DF92EF92FF920F931F93CF93B9
:102C3000DF93CDB7DEB7CA1BDB0B0FB6F894DEBF50
:102C40000FBECDBF09942A88398848885F846E8476
:102C50007D848C849B84AA84B984C884DF80EE80C0
:102C6000FD800C811B81AA81B981CE0FD11D0FB6C9
:102C7000F894DEBF0FBECDBFED010895FC0188279B
:102C80009927E89421912032E9F3293010F02E3071
:102C9000C8F32B3241F02D3239F4689404C00E94FD
:102CA0007D16820F911D219120532A30C0F31EF40E
:102CB000909581959F4F0895FB019F01E8944230C4
:102CC000C4F04532B4F44A3029F497FB1EF49095D1
:102CD00081959F4F642F77270E94F315805D8A337B
:102CE0000CF0895D8193CB010097A1F716F45DE2AA
:102CF00051931082C9010C94A5167AE0979F902DEC
:102D0000879F802D910D1124089560D0E0F09E37AB
:102D1000D8F09639B8F49E3848F4672F782F882772
:102D2000985FF9CF86957795679593959539D0F308
:102D3000B62FB1706B0F711D811D20F487957795AB
:102D40006795939512C02CC05CC0DC01FC01672F15
:102D500071917723E1F7329704C07C916D93708372
:102D60006291AE17BF07C8F30895882371F47723E3
:102D700021F09850872B762F07C0662311F49927EE
:102D80000DC09051862B70E060E02AF09A95660F96
:102D9000771F881FDAF7880F9695879597F908951A
:102DA0009F3F31F0915020F4879577956795B795BF
:102DB000880F911D9695879597F9089557FD90581E
:102DC000440F551F59F05F3F71F04795880F97FBEF
:102DD000991F61F09F3F79F08795089512161306A9
:102DE0001406551FF2CF4695F1DF08C016161706D8
:102DF0001806991FF1CF869571056105089408950D
:102E0000E894BB2766277727CB0197F90895F894B4
:022E1000FFCFF2
:102E12005761697400523153005232530052335396
:102E220000496E6974204F4B003E537461727420E6
:102E320070726F63657373005370656564003E530F
:102E42007065656400537465702073697A65003E2D
:102E5200537465702073697A65002C00312F32003B
:102E6200312F3400312F3800312F313600523100EA
:102E720052320052330049414400003E53657420EF
:102E8200737461727400557365206578697374692F
:102E92006E6700536574207374617274003C436CF6
:102EA20069636B3E204F4B00525A414B005A657288
:102EB2006F20706F736974696F6E73005761697404
:102EC2002E2E2E004F4B003E557365206578697398
:102ED20074696E6700537461727400506F732031AD
:102EE200203D2000506F732032203D2000506F7330
:102EF2002033203D20003C436C69636B3E53746F6A
:102F02007000446F6E65004E657720736574746956
:102F12006E677300504C4B00000000000000000080
:102F2200000102020303030304040404040404046E
:102F3200050505050505050505050505050505053F
:102F4200060606060606060606060606060606061F
:102F5200060606060606060606060606060606060F
:102F620007070707070707070707070707070707EF
:102F720007070707070707070707070707070707DF
:102F820007070707070707070707070707070707CF
:102F920007070707070707070707070707070707BF
:102FA200080808080808080808080808080808089F
:102FB200080808080808080808080808080808088F
:102FC200080808080808080808080808080808087F
:102FD200080808080808080808080808080808086F
:102FE200080808080808080808080808080808085F
:102FF200080808080808080808080808080808084F
:10300200080808080808080808080808080808083E
:10301200080808080808080808080808080808082E
:103022004142434445464748494A4B4C4D4E4F5016
:103032005152535455565758595A616263646566E2
:103042006768696A6B6C6D6E6F7071727374757696
:103052007778797A303132333435363738392B2F25
:10306200000000003F0000C8420000C8C20000800B
:0A30720040CDCC4C3E01FFFF3000C2
:00000001FF
