:100000000C9466000C9485000C9485000C9485007B
:100010000C9485000C9485000C9485000C9485004C
:100020000C9485000C9485000C9485000C9485003C
:100030000C9485000C9485000C9485000C9485002C
:100040000C9485000C9485000C9485000C9485001C
:100050000C9406140C9485000C9485000C94850077
:100060000C9485000C9485000C9485000C948500FC
:100070000C9485000C9485000C9485000C948500EC
:100080000C9485000C9485000C9485000C948500DC
:100090000C9498140C9485000C9485000C948500A5
:1000A0000C9485000C9485000C9485000C948500BC
:1000B0000C9485000C9485000C9485000C948500AC
:1000C0000C9485000C9485000C94850011241FBEAF
:1000D000CFEFD1E2DEBFCDBF14E0A0E0B2E0ECEDA7
:1000E000FDE200E00BBF02C007900D92A237B107FE
:1000F000D9F714E0A2E7B4E001C01D92AA3BB10712
:10010000E1F70E9482100C94EC160C940000A0E021
:10011000B0E0EDE8F0E00C94EC15DC012B01FA0105
:100120009C91923008F439C1EB018881823008F447
:1001300033C1943069F4843009F02FC111969C9139
:1001400011978981981709F428C1A1E1B3E025C16D
:10015000843009F421C18230A9F4923009F01DC124
:100160009A01AD0188E0EA010990AE01E901099226
:100170009E018150C1F7E201898111969C918923EA
:10018000818308C1923009F407C112962D903C90EA
:100190001397EB018A819B811496AD90BD90CD9011
:1001A000DC901797EC80FD800E811F819101281B48
:1001B000390BB90137FF04C066277727621B730B21
:1001C000603271050CF061C0121613066CF5370130
:1001D0004801062E04C096948794779467940A94F5
:1001E000D2F721E030E040E050E004C0220F331F9E
:1001F000441F551F6A95D2F721503040404050406F
:100200002E213F2140235123211531054105510560
:1002100021F021E030E040E050E079018A01E62859
:10022000F728082919293CC0232BD1F1260E371EA7
:1002300035014601062E04C09694879477946794FE
:100240000A94D2F721E030E040E050E004C0220FF1
:10025000331F441F551F6A95D2F72150304040404C
:1002600050402A213B214C215D21211531054105BA
:10027000510521F021E030E040E050E059016A01F1
:10028000A628B728C828D9280BC0821593052CF0BA
:100290001C01AA24BB24650103C0EE24FF248701AE
:1002A00011969C91D20111968C91981709F445C032
:1002B000992339F0A80197012A193B094C095D09D6
:1002C00006C0A60195012E193F09400B510B57FDA1
:1002D00008C0118233822282248335834683578368
:1002E0001DC081E081833382228288279927DC0127
:1002F000821B930BA40BB50B84839583A683B783D2
:100300000DC0220F331F441F551F2483358346839E
:1003100057838281938101979383828324813581DE
:1003200046815781DA01C9010197A109B1098F5F9F
:100330009F4FAF4FBF4328F30BC09183338222827C
:10034000EA0CFB1C0C1D1D1DE482F582068317833D
:1003500083E08083248135814681578157FF1AC00D
:10036000C901AA2797FDA095BA2F81709070A0703F
:10037000B0705695479537952795822B932BA42BD4
:10038000B52B84839583A683B7838281938101965D
:1003900093838283DF0101C0D201CD01CDB7DEB7E7
:1003A000E2E10C940816A0E2B0E0E9EDF1E00C9473
:1003B000F81569837A838B839C832D833E834F83D7
:1003C0005887E9E0EE2EF12CEC0EFD1ECE010196D1
:1003D000B7010E943D068E010F5E1F4FCE010596AC
:1003E000B8010E943D068A8991E089278A8BC7015E
:1003F000B801AE01475E5F4F0E9487000E9468050A
:10040000A096E6E00C941416A0E2B0E0EAE0F2E078
:100410000C94F81569837A838B839C832D833E83A8
:100420004F835887F9E0EF2EF12CEC0EFD1ECE0124
:100430000196B7010E943D068E010F5E1F4FCE014F
:100440000596B8010E943D06C701B801AE01475E9E
:100450005F4F0E9487000E946805A096E6E00C941A
:100460001416A0E2B0E0E7E3F2E00C94EC15698327
:100470007A838B839C832D833E834F835887CE0161
:100480000196BE01675F7F4F0E943D06CE01059633
:10049000BE016F5E7F4F0E943D069985923088F0C5
:1004A00089898230C8F0943019F4823051F404C044
:1004B000843029F4923081F481E193E0C6C0923017
:1004C00049F420E09A858A89981321E02A87CE0191
:1004D0000996BBC0823049F420E09A858A89981336
:1004E00021E02A8BCE014196B0C02D843E844F84FA
:1004F00058886D887E888F88988CEE24FF24870129
:10050000AA24BB24650140E050E060E070E0E0E038
:10051000F0E0C10181709070892BE9F0E60CF71CC6
:10052000081D191D9A01AB012A0D3B1D4C1D5D1DB7
:1005300080E090E0A0E0B0E0E614F70408051905BB
:1005400020F481E090E0A0E0B0E0BA01A901480FFA
:10055000591F6A1F7B1FAA0CBB1CCC1CDD1C97FEFD
:1005600008C081E090E0A0E0B0E0A82AB92ACA2A39
:10057000DB2A3196E032F10549F0660C771C881CC5
:10058000991C5694479437942794C3CFFA85EA89E7
:100590002B893C898B859C85280F391F2E5F3F4F07
:1005A00017C0CA0181709070892B61F0169507956C
:1005B000F794E79480E090E0A0E0B0E8E82AF92A18
:1005C0000A2B1B2B76956795579547952F5F3F4FC5
:1005D00077FDE7CF0CC0440F551F661F771F17FD2F
:1005E0004160EE0CFF1C001F111F215030404030B5
:1005F00090E0590790E0690790E4790760F32B8F4A
:100600003C8FDB01CA018F779070A070B07080348E
:100610009105A105B10561F447FD0AC0E114F1049B
:100620000105110529F0405C5F4F6F4F7F4F407807
:100630001A8EFE1711F081E08A8F4D8F5E8F6F8FBB
:1006400078A383E0898FCE0149960E946805A09621
:10065000E2E10C940816A8E1B0E0E1E3F3E00C94C9
:10066000F41569837A838B839C832D833E834F8328
:100670005887B9E0EB2EF12CEC0EFD1ECE01019651
:10068000B7010E943D068E010F5E1F4FCE010596F9
:10069000B8010E943D062985223008F47EC03989C0
:1006A000323010F4B8017CC08A859A8989278A87FC
:1006B000243011F0223031F4231709F06EC061E1CB
:1006C00073E06EC0343039F41D861E861F86188A8A
:1006D0001C861B8604C0323021F484E08987B70170
:1006E0005FC02B853C858B899C89281B390B3C87F7
:1006F0002B87ED84FE840F851889AD88BE88CF884E
:10070000D88CEA14FB040C051D0540F4EE0CFF1C0C
:10071000001F111F215030403C872B8720E030E024
:1007200040E050E080E090E0A0E0B0E460E070E005
:10073000EA14FB040C051D0540F0282B392B4A2B2D
:100740005B2BEA18FB080C091D09B695A795979530
:100750008795EE0CFF1C001F111F6F5F7F4F6F31DD
:10076000710531F7DA01C9018F779070A070B07010
:1007700080349105A105B10561F427FD0AC0E1149B
:10078000F1040105110529F0205C3F4F4F4F5F4FE9
:1007900020782D873E874F87588BBE01675F7F4F3C
:1007A000CB010E9468056896EAE00C941016A8E157
:1007B000B0E0EDEDF3E00C94F81569837A838B8358
:1007C0009C832D833E834F83588789E0E82EF12C4C
:1007D000EC0EFD1ECE010196B7010E943D068E0172
:1007E0000F5E1F4FCE010596B8010E943D06898518
:1007F000823040F08989823028F0C701B8010E9418
:10080000B50601C081E06896E6E00C941416A8E1F4
:10081000B0E0EDE0F4E00C94F81569837A838B8303
:100820009C832D833E834F83588789E0E82EF12CEB
:10083000EC0EFD1ECE010196B7010E943D068E0111
:100840000F5E1F4FCE010596B8010E943D068985B7
:10085000823040F08989823028F0C701B8010E94B7
:10086000B50601C081E06896E6E00C941416A8E194
:10087000B0E0EDE3F4E00C94F81569837A838B83A0
:100880009C832D833E834F83588789E0E82EF12C8B
:10089000EC0EFD1ECE010196B7010E943D068E01B1
:1008A0000F5E1F4FCE010596B8010E943D06898557
:1008B000823040F08989823028F0C701B8010E9457
:1008C000B50601C08FEF6896E6E00C941416A8E018
:1008D000B0E0EDE6F4E00C94F5159B01AC0183E08B
:1008E0008983DA01C9018827B7FD83959927AA274B
:1008F000BB27B82E211531054105510519F482E0B9
:1009000089833AC08823A9F0203080E0380780E04E
:10091000480780E8580729F460E070E080E09FEC29
:1009200030C0EE24FF248701E21AF30A040B150BF2
:1009300002C079018A018EE1C82ED12CDC82CB82E3
:10094000ED82FE820F831887C801B7010E94190546
:1009500001971816190684F4082E04C0EE0CFF1C2B
:10096000001F111F0A94D2F7ED82FE820F831887B1
:10097000C81AD90ADC82CB82BA82CE0101960E94C3
:1009800068052896E9E00C941116ACE0B0E0EBECB9
:10099000F4E00C94FC1569837A838B839C83CE01ED
:1009A0000196BE016B5F7F4F0E943D068D818230B4
:1009B00061F1823050F1843021F48E81882351F12D
:1009C0002EC02F81388537FD20C06E812F31310533
:1009D0001CF06623F9F023C08EE190E0821B930B9C
:1009E00029853A854B855C8504C056954795379592
:1009F00027958A95D2F76623B1F0509540953095AA
:100A000021953F4F4F4F5F4F0EC020E030E040E058
:100A100050E009C02FEF3FEF4FEF5FE704C020E049
:100A200030E040E050E8B901CA012C96E2E00C94B5
:100A30001816EF92FF920F931F937B018C0180E0B9
:100A4000E81680E0F80681E0080780E0180788F4DF
:100A50008FEFE816F1040105110531F028F088E068
:100A600090E0A0E0B0E017C080E090E0A0E0B0E04F
:100A700012C080E0E81680E0F80680E0080781E018
:100A8000180728F088E190E0A0E0B0E004C080E121
:100A900090E0A0E0B0E020E230E040E050E0281B31
:100AA000390B4A0B5B0B04C016950795F794E79436
:100AB0008A95D2F7F701E75EFC4F8081281B310948
:100AC00041095109C9011F910F91FF90EF900895BD
:100AD000DF92EF92FF920F931F93FC01E480F58069
:100AE00006811781D1808081823048F480E090E0D7
:100AF000A0E1B0E0E82AF92A0A2B1B2BA5C084301C
:100B000009F49FC0823021F4EE24FF24870105C040
:100B1000E114F1040105110519F4E0E0F0E096C0DC
:100B2000628173819FEF623879070CF05BC022E825
:100B30003FEF261B370B2A3131052CF020E030E047
:100B400040E050E02AC0B801A701022E04C076950B
:100B50006795579547950A94D2F781E090E0A0E019
:100B6000B0E004C0880F991FAA1FBB1F2A95D2F7B7
:100B70000197A109B1098E219F21A023B1230097DC
:100B8000A105B10521F081E090E0A0E0B0E09A017C
:100B9000AB01282B392B4A2B5B2BDA01C9018F774C
:100BA0009070A070B07080349105A105B10539F442
:100BB00027FF09C0205C3F4F4F4F5F4F04C0215CAF
:100BC0003F4F4F4F5F4FE0E0F0E02030A0E03A07AA
:100BD000A0E04A07A0E45A0710F0E1E0F0E0790154
:100BE0008A0127C06038710564F5FB01E158FF4FA9
:100BF000D801C7018F779070A070B07080349105D4
:100C0000A105B10539F4E7FE0DC080E490E0A0E055
:100C1000B0E004C08FE390E0A0E0B0E0E80EF91E81
:100C20000A1F1B1F17FF05C016950795F794E79439
:100C3000319687E016950795F794E7948A95D1F752
:100C400005C0EE24FF248701EFEFF0E06E2F6795DB
:100C500066276795902F9F77D794DD24D7948E2FA2
:100C60008695492F462B582F5D29B701CA011F9140
:100C70000F91FF90EF90DF900895FC01DB01408120
:100C800051812281622F6F7770E0221F2227221F5D
:100C90009381892F880F822B282F30E0991F992765
:100CA000991F11969C93119721153105A9F54115AE
:100CB00051056105710511F482E037C082E89FEFAC
:100CC00013969C938E9312979A01AB0167E0220FC3
:100CD000331F441F551F6A95D1F783E08C930DC0D5
:100CE000220F331F441F551F12968D919C9113970D
:100CF000019713969C938E931297203080E03807CB
:100D000080E0480780E4580758F314962D933D93EC
:100D10004D935C93179708952F3F310579F4411552
:100D200051056105710519F484E08C93089564FF01
:100D300003C081E08C9312C01C9210C02F5730402A
:100D400013963C932E93129783E08C9387E0440F85
:100D5000551F661F771F8A95D1F7706414964D93BF
:100D60005D936D937C93179708951F93DC01FB01AE
:100D70009C91923008F447C08081823008F443C0CF
:100D8000943051F411961C91843099F58181682F2B
:100D900070E0611B71093FC0843021F0923031F462
:100DA0008230B9F18181882389F12DC011961C917F
:100DB00011978230F1F081811817D9F412962D9194
:100DC0003C911397828193818217930794F028179F
:100DD0003907BCF014968D919D910D90BC91A02D7A
:100DE0002481358146815781281739074A075B07D7
:100DF00018F4112341F00AC082179307A407B5071E
:100E000040F4112319F061E070E005C06FEF7FEF4F
:100E100002C060E070E0CB011F910895AC018B32FD
:100E2000910519F42EE330E024C08F32910519F4B6
:100E30002FE330E01EC08D33910519F420E430E03B
:100E400018C0C0970A9720F49A012C5F3F4F11C039
:100E50009A01215430402A31310558F0CA01815697
:100E600090404A9718F020E030E003C09A012754E0
:100E70003040C9010895CF93DF93EC01E0E0F0E04A
:100E800020E030E00AC0CF0163E070E00E94C515A9
:100E9000892B11F42F5F3F4F3196EC17FD0798F324
:100EA000220F331F220F331FC901DF91CF91089505
:100EB0009C01220F331F280F391F36952795369531
:100EC0002795C90108958F929F92AF92BF92CF92BA
:100ED000DF92EF92FF920F931F93DF93CF9300D097
:100EE00000D000D0CDB7DEB75B016A017C0160E0C5
:100EF00070E040E050E000E010E04E010894811CFA
:100F0000911C60C0FA01EE0FFF1FE80DF91DD7011B
:100F10008D919C91918380834F5F5F4F433051054A
:100F200009F04AC089819A81A601400F511FFC0136
:100F3000F070F695E795F695E795E75EFB4F208113
:100F4000FA0120832B813C81F901E07FF070B4E04D
:100F5000F695E795BA95E1F783709070A4E0880F55
:100F6000991FAA95E1F7E75EFB4FE80FF91F808113
:100F7000DA0111968C93AD81BE81FD01E07CF070A9
:100F800096E0F695E7959A95E1F72F703070220F6D
:100F9000331F220F331FE75EFB4FE20FF31F8081E9
:100FA000FA018283AF73B070A75EBB4F8C918383CD
:100FB0000C5F1F4F40E050E06F5F7F4F82E090E09A
:100FC000E80EF91E6A157B0508F49CCF4115510502
:100FD00009F446C04130510511F41C821B828981FD
:100FE0009A81B601600F711FFC01F070F695E795CC
:100FF000F695E795E75EFB4F2081DB012C93AB81F3
:10100000BC81FD01E07FF07034E0F695E7953A95FC
:10101000E1F78370907024E0880F991F2A95E1F71B
:10102000E75EFB4FE80FF91F8081FB0181834230AF
:10103000510559F4AF70B070AA0FBB1FAA0FBB1FA8
:10104000A75EBB4F8C91828304C08DE3DB011296B7
:101050008C93F601E00FF11F8DE383830C5F1F4F2C
:10106000C00ED11EF6011082C80126960FB6F89464
:10107000DEBF0FBECDBFCF91DF911F910F91FF90CB
:10108000EF90DF90CF90BF90AF909F908F9008959A
:101090004F925F926F927F928F929F92AF92BF9288
:1010A000CF92DF92EF92FF920F931F93DF93CF9334
:1010B000CDB7DEB728970FB6F894DEBF0FBECDBF11
:1010C0003C014B015A01CC24DD2400E010E0EE2469
:1010D000FF242E010894411C511C6AC0F301EC0D41
:1010E000FD1D808190E00E940E07F801EE0FFF1FAA
:1010F000E40DF51D918380830F5F1F4F04301105B0
:1011000009F053C04B815C81F701EE0FFF1FEA0D20
:10111000FB1D9A012073307014E0369527951A95BF
:10112000E1F789819A819070880F991F880F991F24
:10113000280F391F318320832D813E81F70131969D
:101140002034310579F1EE0FFF1FEA0DFB1DC901B7
:101150008C739070969587959695879564E0440F6B
:10116000551F6A95E1F75070840F951F9183808316
:101170008F819885F70132968034910599F0EE0FB2
:10118000FF1FEA0DFB1D46E0220F331F4A95E1F7D2
:101190003070280F391F3183208383E090E0E80E00
:1011A000F91E01C07F0100E010E00894C11CD11CB1
:1011B000C814D90408F492CFC70128960FB6F89442
:1011C000DEBF0FBECDBFCF91DF911F910F91FF907A
:1011D000EF90DF90CF90BF90AF909F908F907F90D7
:1011E0006F905F904F900895FC0120E030E040E068
:1011F00050E0B22FAA279927882760E070E0880F77
:10120000991FAA1FBB1F6F5F7F4F68307105B9F729
:1012100081939193A193B1932F5F3F4F4F4F5F4FB6
:10122000203081E0380780E0480780E0580709F760
:1012300008958F929F92AF92BF92CF92DF92EF92DA
:10124000FF920F931F93CF93DF934C01E901570156
:101250006801CA01DB019C01AD01EE24FF24870176
:1012600021C0FE01EE0DFF1DE081852F9927AA27E1
:10127000BB27E827F0E0EE0FFF1FEE0FFF1FE80D82
:10128000F91D80819181A281B381542F432F322F88
:101290002227282739274A275B270894E11CF11CBD
:1012A000011D111DEA14FB040C051D05D4F2B90142
:1012B000CA01DF91CF911F910F91FF90EF90DF90C6
:1012C000CF90BF90AF909F908F9008954F925F9274
:1012D0006F927F928F929F92AF92BF92CF92DF9246
:1012E000EF92FF920F931F93CF93DF932C01E901AD
:1012F00037014801CA01DB017C018D01AA24BB240E
:10130000650127C0502F4F2D3E2D2227FE01EA0DEB
:10131000FB1D808190E0A0E0B0E0282B392B4A2B08
:101320005B2B812F9927AA27BB27880F991F880F2E
:10133000991F840D951DFC01E080F18002811381CD
:10134000E226F326042715270894A11CB11CC11C12
:10135000D11CA614B704C804D904A4F2B701C8016B
:10136000DF91CF911F910F91FF90EF90DF90CF9081
:10137000BF90AF909F908F907F906F905F904F90B5
:101380000895EF92FF920F931F937B018C01C90187
:10139000DA019C01AD0160E070E0C90181709070DC
:1013A000892B51F02E253F254027512756954795EB
:1013B00037952795506804C05695479537952795DA
:1013C0006F5F7F4F6032710541F7B901CA011F910C
:1013D0000F91FF90EF90089580FF02C05F9A01C0C7
:1013E0005F9881FF02C05E9A01C05E9882FF02C0D2
:1013F0005D9A01C05D9883FF02C05C9A08955C9875
:1014000008951F93182FA09A82958F700E94EC095F
:10141000A098A09A812F0E94EC09A09885E88A954F
:10142000F1F71F910895A1980E94010A0895A19AC9
:101430000E94010A0895CF93DF93EC0103C0219627
:101440000E94170A88818823D1F7DF91CF910895F0
:10145000613039F0613040F0623029F0633061F47E
:1014600007C0805C01C08C5E80680E94130A0895EA
:101470008C5A80680E94130A089581E00E94130A22
:1014800080EA9FE00197F1F7089582E00E94130A35
:1014900080EA9FE00197F1F708951F93CF93DF93C0
:1014A000579A569A559A549A989A999A80E395E73A
:1014B0000197F1F7A198A09810E0C0E1D7E2A09AB7
:1014C00083E00E94EC09A098CE010197F1F71F5F1D
:1014D0001330A9F7A09A82E00E94EC09A09880ED51
:1014E00097E00197F1F788E20E94130A88E00E94D2
:1014F000130A81E00E94130A80EA9FE00197F1F746
:1015000086E00E94130A8CE00E94130ADF91CF91BB
:101510001F9108959093C5008093C40088E1809343
:10152000C10008959093CD008093CC0088E980930A
:10153000C9000895982F8091C80085FFFCCF909333
:10154000CE0008958091C80087FFFCCF8091CE0027
:101550000895FC0107C08091C80085FFFCCF31963B
:101560009093CE0090819923B1F70895E1ECF0E0DB
:101570008081877F80830895982F8091C00085FFA8
:10158000FCCF9093C6000895FC0107C08091C00075
:1015900085FFFCCF31969093C60090819923B1F7D7
:1015A00008958091C00087FFFCCF8091C600089508
:1015B0008F929F92AF92BF92CF92DF92EF92FF9263
:1015C0000F931F93DF93CF9300D000D0CDB7DEB73A
:1015D0007C010E943D0A80E060E00E94280A80E0D1
:1015E00092E00E941B0A80E197E228EC30E0F901CA
:1015F0003197F1F70197D9F790E3892E95E7992E66
:1016000000E117E25E010894A11CB11C80EAC82E1B
:101610008FE0D82E81E0E816F10491F5729A739A62
:10162000C4010197F1F785E092E00E94C40AC80165
:101630000197F1F772987398C8010197F1F72F9A03
:10164000F5018091C00087FFFCCF8091C6008930F2
:1016500011F08193F6CF8A81803309F082C08B81AB
:101660008E3409F07EC0C6010197F1F7429AC60197
:101670000197F1F74298C8010197F1F72F986FC0D1
:1016800082E0E816F10491F5729A739AC401019709
:10169000F1F78AE092E00E94C40AC8010197F1F7CD
:1016A00072987398C8010197F1F72E9AF50180910D
:1016B000C00087FFFCCF8091C600893011F0819374
:1016C000F6CF8A81803309F049C08B818E3449F48A
:1016D000C6010197F1F7159AC6010197F1F7159820
:1016E00035C08A3509F03AC0109A3BC083E0E8164D
:1016F000F10409F034C0729A739AC4010197F1F7AA
:101700008FE092E00E94C40AC8010197F1F7729835
:101710007398C8010197F1F72E9AF5018091C000E6
:1017200087FFFCCF8091C600893011F08193F6CFFE
:101730008A81803399F48B818E3461F4C6010197DC
:10174000F1F78D9AC6010197F1F78D98C8010197BD
:10175000F1F704C08A3511F4889A03C02E982F98A7
:1017600059CF419A0E943D0A80E060E00E94280A19
:1017700084E192E00E941B0A80E29EE428EC30E0C3
:10178000F9013197F1F70197D9F70E943D0A789452
:101790002F980F900F900F900F90CF91DF911F9186
:1017A0000F91FF90EF90DF90CF90BF90AF909F9000
:1017B0008F900895109285001092840082E08093AB
:1017C000800081E08093810086BB80936F0084EF6E
:1017D00091E090939F0480939E040895109281005D
:1017E0000895AF92BF92CF92DF92EF92FF920F9344
:1017F0001F93DF93CF9300D00F92CDB7DEB77C015C
:101800006B01009731F480E3FB01808301E010E07D
:101810002FC000E010E05E010894A11CB11CC701BC
:101820006AE070E00E94C5158A30910514F0895A6B
:1018300001C0805DF501E00FF11F80830F5F1F4F36
:10184000C7016AE070E00E94C5157B016115710552
:1018500031F701501040F501E00FF11F0F5F1F4FEE
:10186000D60103C080818D933197EC17FD07D1F726
:101870000C0D1D1DF80110820F900F900F90CF914D
:10188000DF911F910F91FF90EF90DF90CF90BF906D
:10189000AF900895FC0120E030E010C0C90163E082
:1018A000880F991F6A95E1F7220F331F820F931F4C
:1018B000242F30E020533040280F391F419144231A
:1018C00069F7C9010895F999FECF1FBA92BD81BD8C
:1018D00060BDFA9AF99A0895F999FECF92BD81BD3B
:1018E000F89A80B508951F936B3F710524F0162F69
:1018F0001A5F6AEF01C010E08130910539F484E687
:1019000090E00E94630C85E690E012C08230910561
:1019100039F488EC90E00E94630C89EC90E008C0F8
:10192000039749F48CE291E00E94630C8DE291E010
:10193000612F0E94630C1F91089581309105C9F4B5
:10194000F999FECF84E690E092BD81BDF89A30B55A
:10195000F999FECF85E690E092BD81BDF89A20B559
:10196000832F90E0820F911D9093850480938404CF
:10197000089582309105C9F4F999FECF88EC90E082
:1019800092BD81BDF89A30B5F999FECF89EC90E00F
:1019900092BD81BDF89A20B5832F90E0820F911DF2
:1019A000909387048093860408950397C1F4F9996E
:1019B000FECF8CE291E092BD81BDF89A30B5F999E5
:1019C000FECF8DE291E092BD81BDF89A20B5832FC4
:1019D00090E0820F911D909389048093880408956C
:1019E0006F927F928F929F92AF92BF92CF92DF922F
:1019F000EF92FF920F931F93DF93CF9300D000D00D
:101A000000D0CDB7DEB700E010E0EE24FF24A4E064
:101A1000CA2EDD244E010894811C911CF4E0AF2EE7
:101A2000B12CAC0EBD1EE8EC6E2E712C02C005E090
:101A300010E00230110589F10330110544F401155D
:101A4000110569F00130110509F089C017C0053092
:101A5000110591F10630110509F081C058C080E0F0
:101A600060E00E94280A8CE192E00E941B0A80E05C
:101A700061E00E94280A8BE292E06FC080E060E0A3
:101A80000E94280A81E392E00E941B0A80E061E044
:101A90000E94280A88E392E060C080E060E00E9433
:101AA000280A8BE292E00E941B0A80E061E00E941B
:101AB000280A82E492E051C080E060E00E94280A97
:101AC0008BE292E00E941B0A81E061E00E94280AFA
:101AD0008C2D992787FD9095B4010E94F10BC401CC
:101AE0000E941B0A83E061E00E94280A8DE492E0D4
:101AF0000E941B0A84E061E00E94280A8D2D99272C
:101B000087FD9095B5010E94F10BC50126C080E0CC
:101B100060E00E94280A88E392E00E941B0A80E0AD
:101B200061E00E94280AE114F10419F48FE492E0C4
:101B300014C081E0E816F10419F483E592E00DC0C9
:101B400082E0E816F10419F487E592E006C083E02C
:101B5000E816F10421F48BE592E00E941B0A8EEE58
:101B600092E0F3013197F1F70197D9F7649B1DC01B
:101B70000E943D0A659936C0043011054CF083E09F
:101B8000E816F1040CF071C00894E11CF11C6DC062
:101B9000023011053CF50F5F1F4F24C0D3948AE03B
:101BA000D81601F5C394DD241DC00E943D0A659B33
:101BB00019C00430110534F0E114F10419F008944F
:101BC000E108F108C80101978330910508F48C0100
:101BD0000530110539F4DA948FEFD81619F4CA9448
:101BE00079E0D72E669925CF01151105B9F001309E
:101BF000110509F41CCF0230110519F406E010E0BC
:101C000018CF0530110519F401E010E012CF0630AD
:101C1000110509F00ECF02E010E00BCF81E0E816CD
:101C2000F10491F082E0E816F1041CF4EF2851F081
:101C300012C082E0E816F10449F083E0E816F104EE
:101C400051F407C0459A03C0459804C0459846988A
:101C500002C0459A469A88E893E128EC30E0F90101
:101C60003197F1F70197D9F705C00530110509F44F
:101C700095CFB8CF26960FB6F894DEBF0FBECDBF76
:101C8000CF91DF911F910F91FF90EF90DF90CF9058
:101C9000BF90AF909F908F907F906F900895CF925C
:101CA000DF92EF92FF920F931F93DF93CF93CDB705
:101CB000DEB76F970FB6F894DEBF0FBECDBF6C01D5
:101CC000729A739A80E197E20197F1F781E0C81662
:101CD000D10419F480E692E00DC0A2E0CA16D10446
:101CE00019F485E692E006C0B3E0CB16D10421F4E6
:101CF0008AE692E00E94C40A80EA9FE00197F1F729
:101D0000729873982E9A1A861B861C861D86FE0171
:101D10003E9686E0DF011D928A95E9F7EE24FF24C6
:101D20009E01265F3F4F8091C00087FFFCCF8091CE
:101D3000C600893041F0F901EE0DFF1D8083089443
:101D4000E11CF11CF0CF9C852D853E854F858B8550
:101D50008D839E832F83388749878E010B5F1F4FAA
:101D6000F801EE0DFF1D1082C7010E945807C8013F
:101D7000B701AE014C5E5F4F0E9448089E89288DD6
:101D80008C8989839A832B831C82B1E0CB16D10482
:101D900049F4CE0101960E944A0C90938B048093E3
:101DA0008A0419C082E0C816D10449F4CE01019614
:101DB0000E944A0C90938D0480938C040CC0A3E085
:101DC000CA16D10441F4CE0101960E944A0C9093A8
:101DD0008F0480938E0420918A0430918B0480912B
:101DE00084049091850428173907F9F420918C0414
:101DF00030918D04809186049091870428173907CB
:101E0000A1F420918E0430918F04809188049091E8
:101E100089042817390749F48FE692E00E94A90A3D
:101E20001092930481E0809394042E986F960FB6DD
:101E3000F894DEBF0FBECDBFCF91DF911F910F9100
:101E4000FF90EF90DF90CF900895EF92FF920F9365
:101E50001F93DF93CF93CDB7DEB72A970FB6F894D1
:101E6000DEBF0FBECDBF00E0B8ECEB2EF12C00239F
:101E700009F039C180E060E00E94280A84E792E01E
:101E80000E941B0A80E061E00E94280A8FE792E02E
:101E90000E941B0A649B04C0659907C001E005C04D
:101EA000659B03C0013009F400E0669905C028E88D
:101EB00033E148EC50E00AC08EEE92E0F701319732
:101EC000F1F70197D9F70E943D0AD1CFCA010197D6
:101ED000F1F721503040D1F7002309F08AC00E9469
:101EE0003D0A80E060E00E94280A8CE892E00E94AF
:101EF0001B0A85E061E00E94280A86E992E00E94C0
:101F00001B0A6699FECF81E090E00E944F0E88EE9A
:101F100093E028EC30E0F9013197F1F70197D9F718
:101F200060918A0470918B0481E090E00E94730CB0
:101F300082E090E00E944F0E88EE93E028EC30E0C3
:101F4000F9013197F1F70197D9F760918C047091FD
:101F50008D0482E090E00E94730C83E090E00E9488
:101F60004F0E88EE93E028EC30E0F9013197F1F75D
:101F70000197D9F760918E0470918F0483E090E00F
:101F80000E94730C80918E0490918F048E010F5FDC
:101F90001F4FB8014AE050E00E9441160E943D0ADE
:101FA00080E060E00E94280AC8010E941B0A88EABB
:101FB00091E628EC30E0F9013197F1F70197D9F774
:101FC000729A739A88EE93E028EC30E0F901319729
:101FD000F1F70197D9F781EA92E00E94C40A80EEF6
:101FE0009EE228EC30E0F9013197F1F70197D9F73B
:101FF00061C081E090E00E949D0C82E090E00E9430
:102000009D0C83E090E00E949D0C80E197E228EC1B
:1020100030E0F9013197F1F70197D9F784EF91E0BA
:1020200090939F0480939E040E943D0A80E060E0AC
:102030000E94280A86EA92E00E941B0A80E061E082
:102040000E94280A85EB92E00E941B0A0E94DA0B8C
:1020500080916F04909170048F5F9F4FC9F30E942D
:102060003D0A80E060E00E94280A8DEB92E00E9429
:102070001B0A88E99AE328EC30E0F9013197F1F77F
:102080000197D9F7729A739A88EE93E028EC30E0C2
:10209000F9013197F1F70197D9F781EA92E00E94AF
:1020A000C40A80EE9EE228EC30E0F9013197F1F7A6
:1020B0000197D9F710928504109284041092870436
:1020C0001092860410928904109288042A960FB602
:1020D000F894DEBF0FBECDBFCF91DF911F910F915E
:1020E000FF90EF90089580E060E00E94280A8CE85D
:1020F00092E00E941B0A80E061E00E94280A80ECC6
:1021000092E0C6CE4F925F926F927F928F929F9293
:10211000AF92BF92CF92DF92EF92FF920F931F93F5
:10212000DF93CF9300D00F92CDB7DEB780E885BFA5
:1021300085BF809174008F77809374006E98769A33
:102140006D98759A6C98749A81B1876781B9109867
:1021500015981698129882B1826182B987B1866EFD
:1021600087B947984598429888B1826488B980B306
:10217000876780BB88988D988E988A9881B3826192
:1021800081BB1092C5009CE09093C40088E18093CD
:10219000C1001092CD009093CC0088E98093C900D3
:1021A0000E944D0A8DB18C608DB97298739884B17C
:1021B000806C84B985B1806C85B980E197E228ECA8
:1021C00030E0F9013197F1F70197D9F72E982F9860
:1021D00088E99AE328EC30E0F9013197F1F70197AB
:1021E000D9F781E090E00E94D80A84EC99E028ECCD
:1021F00030E0F9013197F1F70197D9F782E090E0EB
:102200000E94D80A84EC99E028EC30E0F90131977B
:10221000F1F70197D9F783E090E00E94D80A84ECA7
:1022200099E028EC30E0F9013197F1F70197D9F7FF
:102230000E94250F0E94F00C1092700410926F04FF
:102240001092A4041092A30410928B0410928A049A
:1022500010928D0410928C04789447981098889866
:102260002E982F98FF24F39400E010E03E0108948C
:10227000611C711C48ECC42ED12C30E2E32E21E00D
:10228000822E912C94EFA92E91E0B92E80E2482E57
:102290008EE4582E80916F0490917004892B09F080
:1022A0009EC080919304813071F49092700480926A
:1022B0006F0410929404B0929F04A0929E040E9416
:1022C000DA0B0E943D0A669946C08CED95E0F60156
:1022D0003197F1F70197D9F7E092A50481E0F8165C
:1022E00029F410938504009384040FC082E0F8164B
:1022F00029F4109387040093860407C083E0F8163E
:1023000021F41093890400938804F39483E08F15DB
:1023100000F581E061E00E94280A8EEC92E00E94C4
:102320001B0A88E99AE3F6013197F1F70197D9F78B
:102330000E943D0A9092700480926F04B0929F04B4
:10234000A0929E0481E0809393040E94DA0BFF2404
:10235000F39400E010E080919304882309F03FC0DB
:10236000649B09C065990EC081E0043F180754F4CE
:102370000B5F1F4F07C0659B05C01016110614F4B4
:1023800005501040C801B3014AE050E00E944116D8
:102390000E943D0A80E060E00E94280A81E0F81671
:1023A00019F484ED92E00BC082E0F81619F48DED7B
:1023B00092E005C083E0F81621F486EE92E00E94D8
:1023C0001B0A80E069E00E94280AC3010E941B0AE0
:1023D0008CEB92E0F6013197F1F70197D9F78091F4
:1023E0006F0490917004019709F054CF80E060E091
:1023F0000E94280A85EB92E00E941B0A85E061E0BA
:102400000E94280A8FEE92E00E941B0A669B09C078
:102410008091A504823429F080919304882309F0E7
:1024200039CF1092700410926F041092930410929E
:102430008100C2010197F1F70E943D0A80E060E04F
:102440000E94280A8BEF92E00E941B0A80E395E726
:10245000F6013197F1F70197D9F70E943D0A1ACF9B
:102460004F925F926F927F928F929F92AF92BF92A4
:10247000CF92DF92EF92FF920F931F93CF93DF9350
:10248000EC018130910549F480908404909085049A
:1024900080918A0490918B041AC08230910549F48E
:1024A000809086049090870480918C0490918D0494
:1024B0000EC08330910519F0882499240AC08090B9
:1024C00088049090890480918E0490918F04881ADA
:1024D000990AE0906604F0906704009168041091F6
:1024E0006904B401882777FD8095982F0E946704BE
:1024F0002B013C01C130D10549F420917404309185
:102500007504409176045091770422C0C230D10501
:1025100049F4209178043091790440917A045091E3
:102520007B0416C0C330D10559F00F2EF0E0AF2E5A
:10253000F0E0BF2EF0E0CF2EF0E0DF2EF02D18C03F
:1025400020917C0430917D0440917E0450917F0461
:10255000C301B2010E94D30120915A0430915B045F
:1025600040915C0450915D040E942B035B016C015F
:10257000C801B701A30192010E9431027B018C01C5
:10258000C601B50120916A0430916B0440916C043E
:1025900050916D040E9431029B01AC01C801B7014A
:1025A0000E9404020E946A165B016C01C40197FE3E
:1025B00004C088279927881999098B3F910504F150
:1025C0002AEF821691042CF0C130D10539F44198DC
:1025D00039C0C130D10539F4419A34C0C230D10577
:1025E00039F416982FC0C230D10531F4169A2AC09A
:1025F000C330D10531F126C0C330D10501F122C06D
:1026000010E0C601B50120E030E040E050E00E945B
:102610003704882334F011E0C130D10511F4419A18
:1026200003C04198112329F0C230D10511F4169A44
:1026300003C01698112329F0C330D10511F48E9AE6
:1026400001C08E98C601B50120E030E040E050E0C6
:102650000E940704882309F1C130D10541F447984D
:10266000429A80ED97E00197F1F7429819C0C23085
:10267000D10541F41098159A80ED97E00197F1F794
:1026800015981AC0C330D10501F588988D9A80ED50
:1026900097E00197F1F78D981BC0C130D10549F43F
:1026A000409274045092750460927604709277049C
:1026B0001AC0C230D10549F440927804509279048E
:1026C00060927A0470927B0446C0C330D10549F40D
:1026D00040927C0450927D0460927E0470927F044C
:1026E0003AC02197C1F5109285001092840060E0F5
:1026F00070E080E89FE3A60195010E942B0320E093
:1027000030E44CE156E40E9431020E94C504CB0142
:1027100077FF03C0909581959F4F90939F0480937E
:102720009E0480919E0490919F04883C910534F40E
:1027300088EC90E090939F0480939E0480919E0487
:1027400090919F048F5E924034F08EEE92E09093D1
:102750009F0480939E0480916F04909170048F5F1A
:102760009F4F09F042C0609174047091750480918C
:1027700076049091770420E030E040E050E00E9441
:10278000D703882321F481E08093950402C010923E
:102790009504609178047091790480917A04909105
:1027A0007B0420E030E040E050E00E94D703882323
:1027B00021F481E08093960402C010929604609107
:1027C0007C0470917D0480917E0490917F0420E0D0
:1027D00030E040E050E00E94D703882321F481E0FC
:1027E0008093970402C010929704DF91CF911F91BC
:1027F0000F91FF90EF90DF90CF90BF90AF909F90A0
:102800008F907F906F905F904F9008951F920F92DE
:102810000FB60F920BB60F9211242F933F934F9345
:102820005F936F937F938F939F93AF93BF93EF9338
:10283000FF9380919E0490919F04019790939F0431
:1028400080939E0480919E0490919F048639910507
:1028500051F481E090E00E944F0E85E990E0909362
:102860009F0480939E0480919E0490919F048436DF
:10287000910551F482E090E00E944F0E83E690E0D3
:1028800090939F0480939E0480919E0490919F0456
:10289000C29751F483E090E00E944F0E81E390E0F4
:1028A00090939F0480939E0480919E0490919F0436
:1028B0001816190654F180916E0490E00E943012AF
:1028C00080916E048F5F80936E0480916E048430DB
:1028D00018F081E080936E0480916F0490917004F1
:1028E0008F5F9F4F91F480919504813071F48091B6
:1028F0009604813051F480919704813031F4109224
:10290000700410926F0410928100FF91EF91BF91BB
:10291000AF919F918F917F916F915F914F913F9177
:102920002F910F900BBE0F900FBE0F901F90189518
:102930001F920F920FB60F920BB60F9211242F9386
:102940003F934F935F936F937F938F939F93AF9337
:10295000BF93EF93FF938091CE008093A504809165
:10296000CE00803519F481E0809391048091910428
:10297000813009F0F7C0E0919804F0E08091A5045F
:10298000E855FB4F8083809198048F5F8093980473
:1029900080919204882389F08091A5048B3469F09A
:1029A000E0919004F0E08091A504EC54FB4F80830B
:1029B000809190048F5F809390048091A50483356B
:1029C00019F481E0809392048091A504873419F46E
:1029D00082E0809392048091A504853519F483E008
:1029E000809392048091A504813419F484E080934B
:1029F00092048091A5048B3409F0B4C080919204B4
:102A0000813069F50E943D0A80E060E00E94280A5A
:102A100080E093E00E941B0A88EB98E828EC30E005
:102A2000F9013197F1F70197D9F70E943D0A80919A
:102A3000B504803311F4459A46988091B5048133EA
:102A400011F44598469A8091B504823311F4459863
:102A500046988091B504833311F4459A469A809143
:102A60009204823009F067C010929404E0919004BF
:102A7000F0E0EC54FB4F10820E943D0A80E060E0E1
:102A80000E94280A8091A804813389F484ED92E0A1
:102A90000E941B0A84EB94E00E9423169093850405
:102AA00080938404809199048F5F8093990480912E
:102AB000A804823389F48DED92E00E941B0A84EB16
:102AC00094E00E942316909387048093860480915B
:102AD00099048F5F809399048091A804833389F4CB
:102AE00086EE92E00E941B0A84EB94E00E9423167B
:102AF0009093890480938804809199048F5F8093D8
:102B0000990480E065E00E94280A84EB94E00E942A
:102B10001B0A88E893E128EC30E0F9013197F1F7DE
:102B20000197D9F780919904833028F081E0809350
:102B300093041092990480919204833019F481E0F7
:102B40008093930480919204843021F48DE093E08B
:102B50000E94A90A1092920410929004109291047B
:102B600010929804FF91EF91BF91AF919F918F9137
:102B70007F916F915F914F913F912F910F900BBE7D
:102B80000F900FBE0F901F90189597FB092E0726E8
:102B90000AD077FD04D00CD006D000201AF470952E
:102BA00061957F4F0895F6F7909581959F4F089511
:102BB000AA1BBB1B51E107C0AA1FBB1FA617B70763
:102BC00010F0A61BB70B881F991F5A95A9F780957F
:102BD0009095BC01CD0108952F923F924F925F9244
:102BE0006F927F928F929F92AF92BF92CF92DF921D
:102BF000EF92FF920F931F93CF93DF93CDB7DEB782
:102C0000CA1BDB0B0FB6F894DEBF0FBECDBF099415
:102C10002A88398848885F846E847D848C849B846C
:102C2000AA84B984C884DF80EE80FD800C811B817A
:102C3000AA81B981CE0FD11D0FB6F894DEBF0FBEA9
:102C4000CDBFED010895FC0188279927E8942191D3
:102C50002032E9F3293010F02E30C8F32B3241F046
:102C60002D3239F4689404C00E946216820F911DBF
:102C7000219120532A30C0F31EF4909581959F4FE7
:102C80000895FB019F01E8944230C4F04532B4F44A
:102C90004A3029F497FB1EF4909581959F4F642F3D
:102CA00077270E94D815805D8A330CF0895D819367
:102CB000CB010097A1F716F45DE251931082C90190
:102CC0000C948A167AE0979F902D879F802D910D06
:102CD0001124089560D0E0F09E37D8F09639B8F40A
:102CE0009E3848F4672F782F8827985FF9CF86950C
:102CF0007795679593959539D0F3B62FB1706B0F93
:102D0000711D811D20F4879577956795939512C065
:102D10002CC05CC0DC01FC01672F71917723E1F7C7
:102D2000329704C07C916D9370836291AE17BF0798
:102D3000C8F30895882371F4772321F09850872BE6
:102D4000762F07C0662311F499270DC09051862B6A
:102D500070E060E02AF09A95660F771F881FDAF717
:102D6000880F9695879597F908959F3F31F0915078
:102D700020F4879577956795B795880F911D96955F
:102D8000879597F9089557FD9058440F551F59F0AE
:102D90005F3F71F04795880F97FB991F61F09F3F48
:102DA00079F087950895121613061406551FF2CF71
:102DB0004695F1DF08C0161617061806991FF1CFC1
:102DC00086957105610508940895E894BB276627E8
:0C2DD0007727CB0197F90895F894FFCF06
:102DDC0057616974000A315309000A325309000A19
:102DEC0033530900496E6974204F4B003E53746194
:102DFC0072742070726F63657373005370656564D1
:102E0C00003E537065656400537465702073697A75
:102E1C0065003E537465702073697A65002C00312F
:102E2C002F3200312F3400312F3800312F31360042
:102E3C000A314509000A324509000A33450900499F
:102E4C00414400003E5365742073746172740055E4
:102E5C007365206578697374696E670053657420B7
:102E6C007374617274003C436C69636B3E204F4B0E
:102E7C00000A5A4109005A65726F20706F736974A9
:102E8C00696F6E7300576169742E2E2E004F4B00C4
:102E9C003E557365206578697374696E6700537469
:102EAC0061727400506F732031203D2000506F739D
:102EBC002032203D2000506F732033203D20003CF9
:102ECC00436C69636B3E53746F7000446F6E6500A6
:102EDC004E65772073657474696E677300504C4B44
:102EEC0000000000000000000000010202030303C8
:102EFC000304040404040404040505050505050580
:102F0C00050505050505050505060606060606065E
:102F1C000606060606060606060606060606060645
:102F2C00060606060606060606070707070707072E
:102F3C000707070707070707070707070707070715
:102F4C000707070707070707070707070707070705
:102F5C0007070707070707070707070707070707F5
:102F6C0007070707070707070708080808080808DE
:102F7C0008080808080808080808080808080808C5
:102F8C0008080808080808080808080808080808B5
:102F9C0008080808080808080808080808080808A5
:102FAC000808080808080808080808080808080895
:102FBC000808080808080808080808080808080885
:102FCC000808080808080808080808080808080875
:102FDC000808080808080808080808080808080865
:102FEC0008080808080808080841424344454647B1
:102FFC0048494A4B4C4D4E4F5051525354555657CD
:10300C0058595A6162636465666768696A6B6C6D6E
:10301C006E6F707172737475767778797A3031322D
:10302C00333435363738392B2F000000003F000081
:10303C00C8420000C8C200008040CDCC4C3E01FF0D
:02304C00FF3053
:00000001FF
